{
  "contractName": "FundRaiser",
  "abi": [
    {
      "inputs": [],
      "stateMutability": "nonpayable",
      "type": "constructor"
    },
    {
      "anonymous": false,
      "inputs": [
        {
          "indexed": false,
          "internalType": "string",
          "name": "Title",
          "type": "string"
        },
        {
          "indexed": false,
          "internalType": "string",
          "name": "Description",
          "type": "string"
        },
        {
          "indexed": false,
          "internalType": "address payable",
          "name": "OwnerAddress",
          "type": "address"
        },
        {
          "indexed": false,
          "internalType": "uint256",
          "name": "RequiredAmount",
          "type": "uint256"
        },
        {
          "indexed": false,
          "internalType": "uint256",
          "name": "ReceivedAmount",
          "type": "uint256"
        },
        {
          "indexed": false,
          "internalType": "uint256",
          "name": "ApplicationId",
          "type": "uint256"
        },
        {
          "indexed": false,
          "internalType": "uint256",
          "name": "donorCount",
          "type": "uint256"
        },
        {
          "components": [
            {
              "internalType": "address",
              "name": "DonorAddress",
              "type": "address"
            },
            {
              "internalType": "uint256",
              "name": "DonorValue",
              "type": "uint256"
            }
          ],
          "indexed": false,
          "internalType": "struct FundRaiser.Donor[]",
          "name": "donors",
          "type": "tuple[]"
        }
      ],
      "name": "CampaignCreated",
      "type": "event"
    },
    {
      "anonymous": false,
      "inputs": [
        {
          "indexed": false,
          "internalType": "string",
          "name": "Title",
          "type": "string"
        },
        {
          "indexed": false,
          "internalType": "string",
          "name": "Description",
          "type": "string"
        },
        {
          "indexed": false,
          "internalType": "address payable",
          "name": "OwnerAddress",
          "type": "address"
        },
        {
          "indexed": false,
          "internalType": "uint256",
          "name": "RequiredAmount",
          "type": "uint256"
        },
        {
          "indexed": false,
          "internalType": "uint256",
          "name": "ReceivedAmount",
          "type": "uint256"
        },
        {
          "indexed": false,
          "internalType": "uint256",
          "name": "ApplicationId",
          "type": "uint256"
        },
        {
          "indexed": false,
          "internalType": "uint256",
          "name": "donorCount",
          "type": "uint256"
        },
        {
          "components": [
            {
              "internalType": "address",
              "name": "DonorAddress",
              "type": "address"
            },
            {
              "internalType": "uint256",
              "name": "DonorValue",
              "type": "uint256"
            }
          ],
          "indexed": false,
          "internalType": "struct FundRaiser.Donor[]",
          "name": "donors",
          "type": "tuple[]"
        }
      ],
      "name": "Donated",
      "type": "event"
    },
    {
      "anonymous": false,
      "inputs": [
        {
          "indexed": false,
          "internalType": "string",
          "name": "Title",
          "type": "string"
        },
        {
          "indexed": false,
          "internalType": "string",
          "name": "Description",
          "type": "string"
        },
        {
          "indexed": false,
          "internalType": "address payable",
          "name": "OwnerAddress",
          "type": "address"
        },
        {
          "indexed": false,
          "internalType": "uint256",
          "name": "RequiredAmount",
          "type": "uint256"
        },
        {
          "indexed": false,
          "internalType": "uint256",
          "name": "ReceivedAmount",
          "type": "uint256"
        },
        {
          "indexed": false,
          "internalType": "uint256",
          "name": "ApplicationId",
          "type": "uint256"
        },
        {
          "indexed": false,
          "internalType": "uint256",
          "name": "donorCount",
          "type": "uint256"
        },
        {
          "components": [
            {
              "internalType": "address",
              "name": "DonorAddress",
              "type": "address"
            },
            {
              "internalType": "uint256",
              "name": "DonorValue",
              "type": "uint256"
            }
          ],
          "indexed": false,
          "internalType": "struct FundRaiser.Donor[]",
          "name": "donors",
          "type": "tuple[]"
        }
      ],
      "name": "Values",
      "type": "event"
    },
    {
      "inputs": [],
      "name": "ContractName",
      "outputs": [
        {
          "internalType": "string",
          "name": "",
          "type": "string"
        }
      ],
      "stateMutability": "view",
      "type": "function",
      "constant": true
    },
    {
      "inputs": [],
      "name": "IdCount",
      "outputs": [
        {
          "internalType": "uint256",
          "name": "",
          "type": "uint256"
        }
      ],
      "stateMutability": "view",
      "type": "function",
      "constant": true
    },
    {
      "inputs": [
        {
          "internalType": "uint256",
          "name": "",
          "type": "uint256"
        }
      ],
      "name": "campaigns",
      "outputs": [
        {
          "internalType": "string",
          "name": "Title",
          "type": "string"
        },
        {
          "internalType": "string",
          "name": "Description",
          "type": "string"
        },
        {
          "internalType": "address payable",
          "name": "OwnerAddress",
          "type": "address"
        },
        {
          "internalType": "uint256",
          "name": "RequiredAmount",
          "type": "uint256"
        },
        {
          "internalType": "uint256",
          "name": "ReceivedAmount",
          "type": "uint256"
        },
        {
          "internalType": "uint256",
          "name": "ApplicationId",
          "type": "uint256"
        },
        {
          "internalType": "uint256",
          "name": "donorCount",
          "type": "uint256"
        }
      ],
      "stateMutability": "view",
      "type": "function",
      "constant": true
    },
    {
      "inputs": [
        {
          "internalType": "string",
          "name": "_Title",
          "type": "string"
        },
        {
          "internalType": "string",
          "name": "_Description",
          "type": "string"
        },
        {
          "internalType": "uint256",
          "name": "_RequiredAmount",
          "type": "uint256"
        }
      ],
      "name": "createCampaign",
      "outputs": [],
      "stateMutability": "nonpayable",
      "type": "function"
    },
    {
      "inputs": [
        {
          "internalType": "uint256",
          "name": "_ApplicationId",
          "type": "uint256"
        }
      ],
      "name": "Donate",
      "outputs": [],
      "stateMutability": "payable",
      "type": "function",
      "payable": true
    },
    {
      "inputs": [
        {
          "internalType": "uint256",
          "name": "_ApplicationId",
          "type": "uint256"
        }
      ],
      "name": "emitValues",
      "outputs": [],
      "stateMutability": "nonpayable",
      "type": "function"
    }
  ],
  "bytecode": "0x608060405260006001553480156200001657600080fd5b506040518060400160405280601a81526020017f4b72757368616e6720536174616e692046756e6472616973657200000000000081525060009080519060200190620000649291906200006b565b506200017f565b82805462000079906200014a565b90600052602060002090601f0160209004810192826200009d5760008555620000e9565b82601f10620000b857805160ff1916838001178555620000e9565b82800160010185558215620000e9579182015b82811115620000e8578251825591602001919060010190620000cb565b5b509050620000f89190620000fc565b5090565b5b8082111562000117576000816000905550600101620000fd565b5090565b7f4e487b7100000000000000000000000000000000000000000000000000000000600052602260045260246000fd5b600060028204905060018216806200016357607f821691505b6020821081036200017957620001786200011b565b5b50919050565b6118bb806200018f6000396000f3fe6080604052600436106100555760003560e01c8063141961bc1461005a57806333ac26271461009d578063d7d984ce146100b9578063eb5dd993146100e4578063fd79c2a91461010d578063ffa56a5714610138575b600080fd5b34801561006657600080fd5b50610081600480360381019061007c9190610e8c565b610161565b6040516100949796959493929190610fa2565b60405180910390f35b6100b760048036038101906100b29190610e8c565b6102e3565b005b3480156100c557600080fd5b506100ce6107d1565b6040516100db919061101f565b60405180910390f35b3480156100f057600080fd5b5061010b60048036038101906101069190610e8c565b6107d7565b005b34801561011957600080fd5b50610122610941565b60405161012f919061103a565b60405180910390f35b34801561014457600080fd5b5061015f600480360381019061015a9190611191565b6109cf565b005b6002818154811061017157600080fd5b90600052602060002090600802016000915090508060000180546101949061124b565b80601f01602080910402602001604051908101604052809291908181526020018280546101c09061124b565b801561020d5780601f106101e25761010080835404028352916020019161020d565b820191906000526020600020905b8154815290600101906020018083116101f057829003601f168201915b5050505050908060010180546102229061124b565b80601f016020809104026020016040519081016040528092919081815260200182805461024e9061124b565b801561029b5780601f106102705761010080835404028352916020019161029b565b820191906000526020600020905b81548152906001019060200180831161027e57829003601f168201915b5050505050908060020160009054906101000a900473ffffffffffffffffffffffffffffffffffffffff16908060030154908060040154908060050154908060060154905087565b600081101580156102f5575060015481105b610334576040517f08c379a000000000000000000000000000000000000000000000000000000000815260040161032b906112c8565b60405180910390fd5b60006002828154811061034a576103496112e8565b5b906000526020600020906008020160040154600283815481106103705761036f6112e8565b5b90600052602060002090600802016003015461038c9190611346565b9050803411156103d1576040517f08c379a00000000000000000000000000000000000000000000000000000000081526004016103c8906113c6565b60405180910390fd5b3373ffffffffffffffffffffffffffffffffffffffff16600283815481106103fc576103fb6112e8565b5b906000526020600020906008020160020160009054906101000a900473ffffffffffffffffffffffffffffffffffffffff1673ffffffffffffffffffffffffffffffffffffffff1603610484576040517f08c379a000000000000000000000000000000000000000000000000000000000815260040161047b90611432565b60405180910390fd5b6000341161049157600080fd5b600282815481106104a5576104a46112e8565b5b906000526020600020906008020160020160009054906101000a900473ffffffffffffffffffffffffffffffffffffffff1673ffffffffffffffffffffffffffffffffffffffff166108fc349081150290604051600060405180830381858888f1935050505015801561051c573d6000803e3d6000fd5b503460028381548110610532576105316112e8565b5b906000526020600020906008020160040160008282546105529190611452565b925050819055506002828154811061056d5761056c6112e8565b5b9060005260206000209060080201600601600081548092919061058f906114a8565b9190505550600060405180604001604052803373ffffffffffffffffffffffffffffffffffffffff168152602001348152509050600283815481106105d7576105d66112e8565b5b906000526020600020906008020160070181908060018154018082558091505060019003906000526020600020906002020160009091909190915060008201518160000160006101000a81548173ffffffffffffffffffffffffffffffffffffffff021916908373ffffffffffffffffffffffffffffffffffffffff1602179055506020820151816001015550507fce20fb75f98815844db17877b1e0a680a50705a42613e50f84b545bf63d804766002848154811061069a576106996112e8565b5b9060005260206000209060080201600001600285815481106106bf576106be6112e8565b5b9060005260206000209060080201600101600286815481106106e4576106e36112e8565b5b906000526020600020906008020160020160009054906101000a900473ffffffffffffffffffffffffffffffffffffffff166002878154811061072a576107296112e8565b5b906000526020600020906008020160030154600288815481106107505761074f6112e8565b5b90600052602060002090600802016004015460015460028a81548110610779576107786112e8565b5b90600052602060002090600802016006015460028b8154811061079f5761079e6112e8565b5b90600052602060002090600802016007016040516107c498979695949392919061171a565b60405180910390a1505050565b60015481565b7f5309160e9ec66a2c8e56e58c376d4a6bf3e9b21abfcd5cc683f7241bb0ca8c3e6002828154811061080c5761080b6112e8565b5b906000526020600020906008020160000160028381548110610831576108306112e8565b5b906000526020600020906008020160010160028481548110610856576108556112e8565b5b906000526020600020906008020160020160009054906101000a900473ffffffffffffffffffffffffffffffffffffffff166002858154811061089c5761089b6112e8565b5b906000526020600020906008020160030154600286815481106108c2576108c16112e8565b5b906000526020600020906008020160040154600154600288815481106108eb576108ea6112e8565b5b90600052602060002090600802016006015460028981548110610911576109106112e8565b5b906000526020600020906008020160070160405161093698979695949392919061171a565b60405180910390a150565b6000805461094e9061124b565b80601f016020809104026020016040519081016040528092919081815260200182805461097a9061124b565b80156109c75780601f1061099c576101008083540402835291602001916109c7565b820191906000526020600020905b8154815290600101906020018083116109aa57829003601f168201915b505050505081565b60008351116109dd57600080fd5b60008251116109eb57600080fd5b600081116109f857600080fd5b60026001816001815401808255809150500390600052602060002090505060006001600280549050610a2a9190611346565b90508360028281548110610a4157610a406112e8565b5b90600052602060002090600802016000019080519060200190610a65929190610d9f565b508260028281548110610a7b57610a7a6112e8565b5b90600052602060002090600802016001019080519060200190610a9f929190610d9f565b503360028281548110610ab557610ab46112e8565b5b906000526020600020906008020160020160006101000a81548173ffffffffffffffffffffffffffffffffffffffff021916908373ffffffffffffffffffffffffffffffffffffffff1602179055508160028281548110610b1957610b186112e8565b5b906000526020600020906008020160030181905550600060028281548110610b4457610b436112e8565b5b90600052602060002090600802016004018190555060015460028281548110610b7057610b6f6112e8565b5b906000526020600020906008020160050181905550600060028281548110610b9b57610b9a6112e8565b5b90600052602060002090600802016006018190555060028181548110610bc457610bc36112e8565b5b9060005260206000209060080201600701600181600181540180825580915050039060005260206000209050506000600160028381548110610c0957610c086112e8565b5b906000526020600020906008020160070180549050610c289190611346565b905073ac22a77708329c1de72d75481c0c2689daebe6ad60028381548110610c5357610c526112e8565b5b90600052602060002090600802016007018281548110610c7657610c756112e8565b5b906000526020600020906002020160000160006101000a81548173ffffffffffffffffffffffffffffffffffffffff021916908373ffffffffffffffffffffffffffffffffffffffff160217905550600060028381548110610cdb57610cda6112e8565b5b90600052602060002090600802016007018281548110610cfe57610cfd6112e8565b5b9060005260206000209060020201600101819055507f9a23f5fca1ba93cd5587d9fe444fd82b29b8497d61881c0d4db2191dce6365c2858533866000600154600060028a81548110610d5357610d526112e8565b5b9060005260206000209060080201600701604051610d789897969594939291906117f2565b60405180910390a160016000815480929190610d93906114a8565b91905055505050505050565b828054610dab9061124b565b90600052602060002090601f016020900481019282610dcd5760008555610e14565b82601f10610de657805160ff1916838001178555610e14565b82800160010185558215610e14579182015b82811115610e13578251825591602001919060010190610df8565b5b509050610e219190610e25565b5090565b5b80821115610e3e576000816000905550600101610e26565b5090565b6000604051905090565b600080fd5b600080fd5b6000819050919050565b610e6981610e56565b8114610e7457600080fd5b50565b600081359050610e8681610e60565b92915050565b600060208284031215610ea257610ea1610e4c565b5b6000610eb084828501610e77565b91505092915050565b600081519050919050565b600082825260208201905092915050565b60005b83811015610ef3578082015181840152602081019050610ed8565b83811115610f02576000848401525b50505050565b6000601f19601f8301169050919050565b6000610f2482610eb9565b610f2e8185610ec4565b9350610f3e818560208601610ed5565b610f4781610f08565b840191505092915050565b600073ffffffffffffffffffffffffffffffffffffffff82169050919050565b6000610f7d82610f52565b9050919050565b610f8d81610f72565b82525050565b610f9c81610e56565b82525050565b600060e0820190508181036000830152610fbc818a610f19565b90508181036020830152610fd08189610f19565b9050610fdf6040830188610f84565b610fec6060830187610f93565b610ff96080830186610f93565b61100660a0830185610f93565b61101360c0830184610f93565b98975050505050505050565b60006020820190506110346000830184610f93565b92915050565b600060208201905081810360008301526110548184610f19565b905092915050565b600080fd5b600080fd5b7f4e487b7100000000000000000000000000000000000000000000000000000000600052604160045260246000fd5b61109e82610f08565b810181811067ffffffffffffffff821117156110bd576110bc611066565b5b80604052505050565b60006110d0610e42565b90506110dc8282611095565b919050565b600067ffffffffffffffff8211156110fc576110fb611066565b5b61110582610f08565b9050602081019050919050565b82818337600083830152505050565b600061113461112f846110e1565b6110c6565b9050828152602081018484840111156111505761114f611061565b5b61115b848285611112565b509392505050565b600082601f8301126111785761117761105c565b5b8135611188848260208601611121565b91505092915050565b6000806000606084860312156111aa576111a9610e4c565b5b600084013567ffffffffffffffff8111156111c8576111c7610e51565b5b6111d486828701611163565b935050602084013567ffffffffffffffff8111156111f5576111f4610e51565b5b61120186828701611163565b925050604061121286828701610e77565b9150509250925092565b7f4e487b7100000000000000000000000000000000000000000000000000000000600052602260045260246000fd5b6000600282049050600182168061126357607f821691505b6020821081036112765761127561121c565b5b50919050565b7f6363636300000000000000000000000000000000000000000000000000000000600082015250565b60006112b2600483610ec4565b91506112bd8261127c565b602082019050919050565b600060208201905081810360008301526112e1816112a5565b9050919050565b7f4e487b7100000000000000000000000000000000000000000000000000000000600052603260045260246000fd5b7f4e487b7100000000000000000000000000000000000000000000000000000000600052601160045260246000fd5b600061135182610e56565b915061135c83610e56565b92508282101561136f5761136e611317565b5b828203905092915050565b7f6161616100000000000000000000000000000000000000000000000000000000600082015250565b60006113b0600483610ec4565b91506113bb8261137a565b602082019050919050565b600060208201905081810360008301526113df816113a3565b9050919050565b7f6262626200000000000000000000000000000000000000000000000000000000600082015250565b600061141c600483610ec4565b9150611427826113e6565b602082019050919050565b6000602082019050818103600083015261144b8161140f565b9050919050565b600061145d82610e56565b915061146883610e56565b9250827fffffffffffffffffffffffffffffffffffffffffffffffffffffffffffffffff0382111561149d5761149c611317565b5b828201905092915050565b60006114b382610e56565b91507fffffffffffffffffffffffffffffffffffffffffffffffffffffffffffffffff82036114e5576114e4611317565b5b600182019050919050565b60008190508160005260206000209050919050565b600081546115128161124b565b61151c8186610ec4565b9450600182166000811461153757600181146115495761157c565b60ff198316865260208601935061157c565b611552856114f0565b60005b8381101561157457815481890152600182019150602081019050611555565b808801955050505b50505092915050565b600081549050919050565b600082825260208201905092915050565b60008190508160005260206000209050919050565b60008160001c9050919050565b600073ffffffffffffffffffffffffffffffffffffffff82169050919050565b60006115f66115f1836115b6565b6115c3565b9050919050565b600061160882610f52565b9050919050565b611618816115fd565b82525050565b6000819050919050565b600061163b611636836115b6565b61161e565b9050919050565b61164b81610e56565b82525050565b604082016000808301549050611666816115e3565b611673600086018261160f565b506001830154905061168481611628565b6116916020860182611642565b5050505050565b60006116a48383611651565b60408301905092915050565b6000600282019050919050565b60006116c882611585565b6116d28185611590565b93506116dd836115a1565b8060005b8381101561170d57816116f48882611698565b97506116ff836116b0565b9250506001810190506116e1565b5085935050505092915050565b6000610100820190508181036000830152611735818b611505565b90508181036020830152611749818a611505565b90506117586040830189610f84565b6117656060830188610f93565b6117726080830187610f93565b61177f60a0830186610f93565b61178c60c0830185610f93565b81810360e083015261179e81846116bd565b90509998505050505050505050565b6000819050919050565b6000819050919050565b60006117dc6117d76117d2846117ad565b6117b7565b610e56565b9050919050565b6117ec816117c1565b82525050565b600061010082019050818103600083015261180d818b610f19565b90508181036020830152611821818a610f19565b90506118306040830189610f84565b61183d6060830188610f93565b61184a60808301876117e3565b61185760a0830186610f93565b61186460c08301856117e3565b81810360e083015261187681846116bd565b9050999850505050505050505056fea2646970667358221220c7ece10ee8234f8582126ad07049282b824f6730a028b84651a2a6b92fb88c5364736f6c634300080d0033",
  "immutableReferences": {},
  "source": "// SPDX-License-Identifier: GPL-3.0\r\n\r\npragma solidity >=0.4.0 <0.9.0;\r\n\r\ncontract FundRaiser{\r\n\r\n    string public ContractName;\r\n    //general name for Application (contract)\r\n\r\n    uint public IdCount = 0;\r\n    //to track the number of applications\r\n\r\n    Campaign[] public campaigns;\r\n    //store the single value of <struct> in a <sturcts> array.\r\n\r\n    struct Donor {\r\n        address DonorAddress;\r\n        uint DonorValue;\r\n    }\r\n\r\n    struct Campaign {\r\n        string Title;\r\n        string Description;\r\n        address payable OwnerAddress;\r\n        uint RequiredAmount;\r\n        uint ReceivedAmount;\r\n        uint ApplicationId;\r\n        uint donorCount;\r\n        Donor[] donors;\r\n    }\r\n    \r\n\r\n    event CampaignCreated(\r\n        string Title,\r\n        string Description,\r\n        address payable OwnerAddress,\r\n        uint RequiredAmount,\r\n        uint ReceivedAmount,\r\n        uint ApplicationId,\r\n        uint donorCount,\r\n        Donor[] donors\r\n    );\r\n\r\n    event Donated(\r\n        string Title,\r\n        string Description,\r\n        address payable OwnerAddress,\r\n        uint RequiredAmount,\r\n        uint ReceivedAmount,\r\n        uint ApplicationId,\r\n        uint donorCount,\r\n        Donor[] donors\r\n    );\r\n\r\n    event Values(\r\n        string Title,\r\n        string Description,\r\n        address payable OwnerAddress,\r\n        uint RequiredAmount,\r\n        uint ReceivedAmount,\r\n        uint ApplicationId,\r\n        uint donorCount,\r\n        Donor[] donors\r\n    );\r\n\r\n    constructor(){\r\n        ContractName = \"Krushang Satani Fundraiser\";\r\n    }\r\n\r\n    function createCampaign(string memory _Title, string memory _Description, uint _RequiredAmount) public{\r\n\r\n        //making sure that title has enough lenght\r\n        require(bytes(_Title).length > 0);\r\n\r\n        //making sure that description has enough lenght\r\n        require(bytes(_Description).length > 0);\r\n\r\n        //making sure that enough money request is raised\r\n        require(_RequiredAmount > 0);\r\n\r\n        //create a campaign\r\n        campaigns.push();\r\n        uint256 newIndex = campaigns.length - 1;\r\n\r\n        //access the hirarchy 1 level struct (campaigns)\r\n        campaigns[newIndex].Title = _Title;\r\n        campaigns[newIndex].Description = _Description;\r\n        campaigns[newIndex].OwnerAddress = payable(msg.sender);\r\n        campaigns[newIndex].RequiredAmount = _RequiredAmount;\r\n        campaigns[newIndex].ReceivedAmount = 0;\r\n        campaigns[newIndex].ApplicationId = IdCount;\r\n        campaigns[newIndex].donorCount = 0;\r\n\r\n        //access the hirarchy 2 level struct (donors)\r\n        campaigns[newIndex].donors.push();\r\n        uint256 newIndex1 = campaigns[newIndex].donors.length - 1;\r\n        campaigns[newIndex].donors[newIndex1].DonorAddress = payable (0xAc22a77708329C1De72D75481C0c2689daebE6aD);\r\n        campaigns[newIndex].donors[newIndex1].DonorValue = 0;\r\n        \r\n        //trigger an event\r\n        emit CampaignCreated(\r\n            _Title,\r\n            _Description,\r\n            payable (msg.sender),\r\n            _RequiredAmount,\r\n            0,\r\n            IdCount,\r\n            0,\r\n            campaigns[newIndex].donors\r\n        );\r\n        \r\n        //increase count of application\r\n        IdCount ++;\r\n\r\n    }\r\n\r\n\r\n    function Donate(uint _ApplicationId) public payable{\r\n        \r\n        //making sure that id is valid\r\n        require(_ApplicationId >= 0 && _ApplicationId < IdCount,\"cccc\");\r\n\r\n        //make sure that your donation is <= donation space left\r\n        uint _donationSpaceLeft = campaigns[_ApplicationId].RequiredAmount - campaigns[_ApplicationId].ReceivedAmount;\r\n        require(msg.value <= _donationSpaceLeft,\"aaaa\");\r\n\r\n        //check that donor is not requester\r\n        require(campaigns[_ApplicationId].OwnerAddress != msg.sender,\"bbbb\");\r\n        \r\n        require(msg.value > 0);\r\n\r\n        //change values in the campaigns section.\r\n        campaigns[_ApplicationId].OwnerAddress.transfer(msg.value);\r\n        campaigns[_ApplicationId].ReceivedAmount += msg.value;\r\n        campaigns[_ApplicationId].donorCount ++;\r\n\r\n        //stop here..............................\r\n\r\n        Donor memory temp = Donor(msg.sender,msg.value);\r\n        campaigns[_ApplicationId].donors.push(temp);\r\n\r\n        //trigger an event\r\n        emit Donated(\r\n            campaigns[_ApplicationId].Title,\r\n            campaigns[_ApplicationId].Description,\r\n            campaigns[_ApplicationId].OwnerAddress,\r\n            campaigns[_ApplicationId].RequiredAmount,\r\n            campaigns[_ApplicationId].ReceivedAmount,\r\n            IdCount,\r\n            campaigns[_ApplicationId].donorCount,\r\n            campaigns[_ApplicationId].donors\r\n        );\r\n    }\r\n\r\n    function emitValues(uint _ApplicationId) public{\r\n        emit Values(\r\n            campaigns[_ApplicationId].Title,\r\n            campaigns[_ApplicationId].Description,\r\n            campaigns[_ApplicationId].OwnerAddress,\r\n            campaigns[_ApplicationId].RequiredAmount,\r\n            campaigns[_ApplicationId].ReceivedAmount,\r\n            IdCount,\r\n            campaigns[_ApplicationId].donorCount,\r\n            campaigns[_ApplicationId].donors\r\n        );\r\n    }\r\n\r\n}",
  "sourcePath": "C:\\Users\\Bavlo\\Desktop\\FundRaiser\\src\\contracts\\FundRaiser.sol",
  "compiler": {
    "name": "solc",
    "version": "0.8.13+commit.abaa5c0e.Emscripten.clang"
  },
  "schemaVersion": "3.4.6",
  "updatedAt": "2022-04-26T19:35:30.133Z",
  "networkType": "ethereum",
  "devdoc": {
    "kind": "dev",
    "methods": {},
    "version": 1
  },
  "userdoc": {
    "kind": "user",
    "methods": {},
    "version": 1
  }
}